:020000040800F2
:10000000FF7F0120F90400084D050008590500088C
:10001000610500086905000871050008000000007E
:10002000000000000000000000000000790500084A
:100030008505000800000000910500089D050008E6
:100040004905000849050008490500084905000858
:100050004905000849050008490500084905000848
:100060004905000849050008490500084905000838
:100070004905000849050008490500084905000828
:10008000A90500084905000849050008000000000E
:10009000000000000000000000000000490500080A
:1000A00049050008490500084905000849050008F8
:1000B00049050008490500084905000849050008E8
:1000C00049050008490500084905000849050008D8
:1000D000490500084905000849050008000000001E
:1000E000490500084905000849050008000000000E
:1000F00000000000000000000000000049050008AA
:1001000000000000490500082D0700084905000807
:1001100000000000000000000000000000000000DF
:10012000610600084905000849050008490500085E
:100130004905000800000000000000000000000069
:100140000000000000000000000000004905000859
:100150004905000849050008490500084905000847
:1001600049050008490500080000000000000000E3
:10017000000000000000000000000000000000007F
:100180000000000049050008000000000000000019
:100190004905000810B5054C237833B9044B13B159
:1001A0000448AFF300800123237010BD68040020D1
:1001B00000000000A85B0008084B10B51BB10849FF
:1001C0000848AFF300800848036803B910BD074B27
:1001D000002BFBD0BDE81040184700BF0000000016
:1001E0006C040020A85B00086404002000000000EC
:1001F00080B582B000AF00237B6000F0EBF800F028
:100200004BF900F0F9FB00F04DFC00F0A9FC00F008
:10021000C5FD00F00DFF00F0FFFC654B1B78DBB265
:10022000012B39D1624B00221A7000F009F9614BA1
:100230009B79DBB21A065F4BDB79DBB21B041A43F6
:100240005C4B1B7ADBB21B0213435A4A527AD2B27E
:1002500013431A46584B1A60564B9B78DBB21A066A
:10026000544BDB78DBB21B041A43524B1B79DBB2D5
:100270001B0213434F4A5279D2B213431A464F4BD3
:100280001A6000214FF0804003F086FB00214C48AB
:1002900003F082FB00F0C0FC4A4B1B78DBB2013B51
:1002A000032BBAD801A252F823F000BFBD02000808
:1002B000C9020008F902000837030008414B002278
:1002C0001A7000F013FE72E03E4B00221A700023F9
:1002D0007B600BE03C4A7B6832F8133099B23B4AB2
:1002E0007B6822F813107B6801337B607B6840F6E3
:1002F0006D629342EEDD5AE0324B00221A70002309
:100300007B6012E0314A7B6832F813309AB22E4992
:100310007B6831F813309BB2134499B22B4A7B6847
:1003200022F813107B6801337B607B6840F66D62B6
:100330009342E7DD3BE0234B00221A7000237B60F1
:1003400012E0224A7B6832F813309AB21E497B6869
:1003500031F813309BB2134499B21C4A7B6822F8DF
:1003600013107B6801337B607B6840F66D629342BB
:10037000E7DD00237B6012E0144A7B6832F813301B
:100380009BB21A46124B1B78DBB292FBF3F399B285
:100390000D4A7B6822F813107B6801337B607B6811
:1003A00040F66D629342E7DD00F0A0FD00BF34E748
:1003B000782100206C210020040000200000002093
:1003C000000C0040792100208021002084040020BE
:1003D0007C21002080B582B000AF01233B71002357
:1003E000BB7100237B710223FB710121012002F00C
:1003F00057FE0121022002F053FE0121042002F0E9
:100400004FFE32233B603B4619460A4802F0D6F8BD
:1004100002233B603B461946074802F0CFF82023F1
:100420003B603B461946054802F0C8F800BF083754
:10043000BD4680BD000802400004024000000240AA
:1004400080B500AF0F4B43F698221A600E4B142272
:100450001A6000214FF0804003F09EFA00210B4803
:1004600003F09AFA0A4B00221A700A4B00221A7003
:1004700000F0D2FB00BF064B1B78DBB2002BFAD09A
:1004800000BF80BD0400002000000020000C0040E0
:100490007B2100207A21002080B582B000AF4FF48C
:1004A000A06000F057FE32233B7100237B710023D4
:1004B000BB710123FB713B1D184600F05DFE382324
:1004C0003B7101237B710023BB710123FB713B1D39
:1004D000184600F051FE10233B7102237B7100236C
:1004E000BB710123FB713B1D184600F045FE00BFA8
:1004F0000837BD4680BD00BFDFF834D0002103E0DF
:100500000C4B5B58435004310B480C4B42189A4239
:10051000F6D30B4A02E0002342F8043B094B9A420F
:10052000F9D300F047F905F083FAFFF761FE704751
:10053000FF7F0120AC5B0008000000206804002061
:1005400068040020603E0020FEE7000080B400AF99
:1005500000BFBD4680BC704780B400AFFEE700BF5F
:1005600080B400AFFEE700BF80B400AFFEE700BF7D
:1005700080B400AFFEE700BF80B400AF00BFBD464F
:1005800080BC704780B400AF00BFBD4680BC7047E0
:1005900080B400AF00BFBD4680BC704780B400AFE0
:1005A00000BFBD4680BC704780B582B000AF254912
:1005B000254801F0CDFE0346002B3FD021492248BB
:1005C00001F01CFF00237B6000237B6002E07B685E
:1005D00001337B607B6842F2CF029342F7DD00F08B
:1005E000B1FC1A4B1B78DBB2452B27D1174B5B783C
:1005F000DBB2522B22D1154B00221A70134B002272
:100600005A70134B01221A70124B00221A70124BAF
:1006100001221A700D4BDB7ADBB20F2B09D80B4B82
:10062000DB7ADBB2002B04D0084BDB7ADAB20A4B60
:100630001A70094B1B78DAB2084B1A7000BF0837E2
:10064000BD4680BD00880020886002406C210020EB
:1006500078210020792100207C2100207D210020AC
:1006600080B500AF2A492B4801F072FE0346002BEB
:100670004BD02749274801F0C1FE274A264B1B884B
:100680009BB223F001039BB21380244B1B78DBB297
:10069000012B03D1224B01221A7036E01F4B1B782D
:1006A000DBB2012B31D91F4B1B78DAB21B4B1B7805
:1006B000DBB29A4206D11C4B06221A70184B02225A
:1006C0001A701BE0174B1B78DAB2144B1B78DBB2A5
:1006D0009A420BD2134B1B78DBB2012B06D9124B7B
:1006E00006221A700E4B03221A7007E00D4B1B787E
:1006F000DBB2012B02D10A4B04221A70094B1B7882
:10070000DBB2013BDAB2074B1A7000BF80BD00BFFD
:100710002080001010640240000800407C2100206E
:10072000792100207D2100207A21002080B500AFB2
:1007300001211B4804F058F90346002B2ED001215B
:10074000174804F07BF9174B1B78DBB2062B08D156
:10075000154A154B1B889BB243F001039BB21380D3
:1007600007E0104B1B78DBB2032B02D10F4B0122A9
:100770001A700C4B1B78DBB20133DAB2094B1A70DA
:10078000084B1B78DBB2202B02D9064B20221A70B3
:10079000074A074B5B6983F02003536100BF80BDAC
:1007A000000C00407A210020000800407B2100203E
:1007B0000000024080B500AF124A124B1B6843F0A4
:1007C000010313600F4B00229A600E4A0D4B1B6809
:1007D00023F0847323F4803313600A4B0A4A5A606F
:1007E000084A084B1B6823F480231360054B002242
:1007F000DA6000F089F8054B4FF000629A6000BFA4
:1008000080BD00BF003802401030002400ED00E041
:1008100080B487B000AF00233B6100237B610223DB
:10082000FB600023BB6002237B60324B9B6803F0BC
:100830000C033B613B69042B07D0082B09D0002B2C
:100840003FD12D4B2D4A1A603FE02B4B2C4A1A60AA
:100850003BE0284B5B6803F480039B0DBB60254B9A
:100860005B6803F03F037B60BB68002B0DD0244A1C
:100870007B68B2FBF3F21F4B596847F6C0730B401D
:100880009B0903FB02F37B610CE01C4A7B68B2FB13
:10089000F3F2184B596847F6C0730B409B0903FBF2
:1008A00002F37B61134B5B6803F440331B0C013391
:1008B0005B00FB607A69FB68B2FBF3F30E4A1360DE
:1008C00003E00D4B0D4A1A6000BF0A4B9B6803F012
:1008D000F0031B090B4AD35CDBB23B61064B1A6881
:1008E0003B6922FA03F3044A136000BF1C37BD467C
:1008F00080BC704700380240080000200024F4004B
:1009000000127A000C00002080B483B000AF0023F6
:100910007B6000233B60344A334B1B6843F48033D5
:100920001360314B1B6803F400333B607B68013379
:100930007B603B68002B02D17B68002BF1D12A4BF6
:100940001B6803F40033002B02D001233B6001E05D
:1009500000233B603B68012B40D1234A224B1B6C98
:1009600043F080531364214A204B1B6843F44043F7
:1009700013601D4A1C4B9B6893601B4A1A4B9B6873
:100980009360194A184B9B6843F480539360164B4D
:10099000174A5A60144A144B1B6843F08073136063
:1009A00000BF114B1B6803F00073002BF9D0114BF3
:1009B00040F202621A600C4A0B4B9B6823F003035F
:1009C0009360094A084B9B6843F00203936000BFA1
:1009D000054B9B6803F00C03082BF9D100BF0C37C3
:1009E000BD4680BC704700BF003802400070004028
:1009F00008544107003C0240B0B48BB000AF254B17
:100A00009B6803F4E0539B0A7B62234B3C1D1D460D
:100A10000FCD0FC495E80F0084E80F001F4B1A6834
:100A20007B6A9B0007F128010B4453F8241C7B6A66
:100A30009B0007F12800034453F8243C012B0CBF12
:100A400001230023DBB203FB01F17B6A9B0007F16A
:100A50002800034453F8243CD80F03445B10184685
:100A60007B6A9B0007F12804234453F8243C012BA4
:100A700014BF01230023DBB203FB00F30B44B2FBE2
:100A8000F3F31A46064B1A6000BF2C37BD46B0BCC4
:100A9000704700BF00380240845B00080800002057
:100AA0005C3E002080B58AB000AF0121022002F038
:100AB00033FB01233B6002233B7101237B71002345
:100AC000BB710123FB713B461946214801F076FDBD
:100AD000022200211E4801F0DBFE0023BB8300231D
:100AE000BB840023FB831B4B1B681B4A82FB031246
:100AF000D214DB17D31A013B3B6207F11C031946E2
:100B0000164802F0C9FD60233B8101237B81114B14
:100B10001B68114A82FB03121215DB17D31A3B61C3
:100B20000223BB8207F1080319460C4803F056F86C
:100B300008210A4803F09EFA0121084802F0D4FE79
:100B40000121064802F028FF00BF2837BD4680BDBE
:100B5000000402405C3E002083DE1B430004004092
:100B600080B58AB000AF0121042002F0D5FA4FF41D
:100B700000733B6002233B7100237B710023BB7138
:100B80000223FB713B4619461F4801F017FD022264
:100B900009211D4801F07CFE0023BB830023BB8498
:100BA0000023FB83194B1B689B00194A82FB03122D
:100BB000D214DB17D31A013B3B6207F11C03194621
:100BC000144802F069FD60233B8101237B810F4BB8
:100BD0001B680F4A82FB03121215DB17D31A3B6105
:100BE0000023BB8207F1080319460A4803F07CF88A
:100BF0000821084803F05AFA0121064802F074FE61
:100C000000BF2837BD4680BD000402405C3E002086
:100C100083DE1B430008004080B58AB000AF01218D
:100C2000012002F079FA0121082002F075FA02236E
:100C30003B62022387F82430002387F82530002305
:100C400087F82630012387F8273007F1200319465B
:100C50004B4801F0B3FC01220121494801F018FE84
:100C600001233B62022387F82430002387F82530D4
:100C7000002387F82630012387F8273007F1200367
:100C800019463F4801F09AFC022200213C4801F03D
:100C9000FFFD3C4B1B683C4A82FB0312D214DB175E
:100CA000D31A9BB2013B9BB2BB820023BB830023C0
:100CB000FB82364B1B68013BBB6107F114031946ED
:100CC000334802F0E9FC334B1B68013BBB6107F181
:100CD000140319464FF0804002F0DEFC60233B8095
:100CE00001237B800A23BB600023BB813B4619465E
:100CF000274802F071FE0821254803F081F90121FF
:100D0000234802F0F1FD60233B8001237B80042314
:100D1000BB600223BB813B4619464FF0804002F086
:100D2000D5FE08214FF0804003F086F901214FF0F5
:100D3000804002F0D9FD0121154803F045FE012253
:100D40000121134803F0F2FD0121114802F024FEB5
:100D500001214FF0804002F01FFE4FF080420D4B0A
:100D60001B680C3B53620A4A084B1B680B3B5362DF
:100D7000094B03225A6200BF2837BD4680BD00BF21
:100D8000000002405C3E002083DE1B430400002084
:100D9000000C0040000000200004004080B596B028
:100DA00000AF01214FF4003002F0B6F901214FF4F9
:100DB000001002F075F907220221454801F068FD94
:100DC00007220321424801F063FD022387F84430E3
:100DD000012387F84530002387F84630012387F840
:100DE000473004233B6407F140031946384801F0BB
:100DF000E5FB08233B6407F140031946344801F042
:100E0000DDFB4FF4E133BB640023A7F84C30002333
:100E1000A7F84E300023A7F850300023A7F854302D
:100E20000C23A7F8523007F148031946294804F06B
:100E3000DBF900233B6300237B630023BB630023B8
:100E40007B624FF48063FB61234BBB600023FB6339
:100E500000233B620023BB614FF40033FB620C2391
:100E60007B614FF48073BB624FF000637B600023B3
:100E70003B611A4BFB603B1D1946194801F03EF8D7
:100E800001221021164801F029FA41F6DC437B616A
:100E90000023BB624FF000637B6040233B61114B3A
:100EA000FB603B1D1946104801F028F80121094854
:100EB00004F0B0FA01210A4801F0ACF80122402107
:100EC000044804F0A7FC00BF5837BD4680BD00BFF2
:100ED0000000024000440040044400406021002023
:100EE0008860024080210020A060024080B500AFF1
:100EF0000121114801F08EF8012280210F4804F0F1
:100F000089FC00BF40210D4804F0F0FC0346002B93
:100F1000F8D000BF0A49084801F078F90346002BD1
:100F2000F8D00749044801F0ABF94021034804F028
:100F3000F9FC00BF80BD00BFA0600240004400403B
:100F40000000202080B483B000AF4FF0FF337B60FF
:100F500000233B6000233B6012E0334A3B681344AC
:100F60001B78DBB2452B08D13B6801332E4AD35C9A
:100F7000DBB2522B01D13B687B603B6801333B60A5
:100F80003B680B2BE9DD284BDB7ADBB2452B06D126
:100F9000254B1B78DBB2522B01D10B237B607B6886
:100FA000B3F1FF3F2CD000233B600DE07A683B6833
:100FB00013441D4AD35CD9B21C4A3B6813440A4609
:100FC0001A703B6801333B607B68C3F10C023B68DD
:100FD0009A42EBDC00233B600EE07B68C3F10C021D
:100FE0003B68134410493A680A441278D1B20F4A58
:100FF000D1543B6801333B603A687B689A42ECDB32
:1010000000233B6007E0084A3B68134400221A7043
:101010003B6801333B603B680B2BF4DD00BF0C37B2
:10102000BD4680BC704700BF602100206C210020BD
:1010300080B59CB000AF01214FF4800002F030F881
:1010400001214FF4807002F085F80023FB603C4BD7
:101050003B613C4B7B610023BB6140F66E63FB61EF
:1010600000233B624FF480637B624FF40063BB62FA
:101070004FF40053FB624FF480733B634FF4003333
:101080007B630023BB630123FB6300233B640023DA
:101090007B6407F10C0319462B4800F02FFF012158
:1010A000294800F0B7FF01221021274801F016F966
:1010B00001237B6003233B720023FB723B1D194617
:1010C000224801F07BFA0023BB640023FB64002369
:1010D0003B6500237B6507F14803184600F07EF965
:1010E0000023BB65002387F85C30002387F85D3060
:1010F0004FF080533B664FF010637B660023BB6666
:10110000012387F86C3007F158031946104800F0A6
:10111000F3F8012301220A210D4800F03DFA0121D4
:101120000B4800F0D3FB0121094800F0B3FB01217B
:10113000074800F091F900BF7037BD4680BD00BF81
:101140004C20014080210020106402400008024031
:101150000020014080B483B000AF7860054A7B680E
:1011600043F0BF6343F40033D36000BF0C37BD4688
:1011700080BC704700ED00E080B485B000AF7860BF
:101180000023FB730023BB730F237B737B68DB7827
:10119000002B38D0264BDB68DB4303F4E0631B0AEB
:1011A000FB73FB7BC3F10403BB737A7BFB7B42FACB
:1011B00003F37B737B685B781A46BB7B02FA03F30D
:1011C000FB737B689A787B7B1340DAB2FB7B13431B
:1011D000FB73FB7B1B01FB73164A7B681B78134474
:1011E000FA7B83F80023134A7B681B785B09DBB228
:1011F00018467B681B7803F01F03012101FA03F3F3
:1012000042F820300FE00B497B681B785B09DBB2AA
:1012100018467B681B7803F01F0301229A4000F1F7
:10122000200341F8232000BF1437BD4680BC70471F
:1012300000ED00E000E100E080B483B000AF786032
:10124000396007493B6823F0604323F07F037A68E5
:1012500013438B6000BF0C37BD4680BC704700BF96
:1012600000ED00E080B483B000AF03460A46FB7196
:101270001346BB71BB79002B06D00949084B1A698C
:10128000FB7913430B6106E00549054B1A69FB79AD
:10129000DB4313400B6100BF0C37BD4680BC704779
:1012A00000ED00E080B483B000AF78607B68042B71
:1012B00006D1094A084B1B6843F00403136005E09C
:1012C000054A054B1B6823F00403136000BF0C376D
:1012D000BD4680BC704700BF10E000E080B500AFA5
:1012E00001214FF4807001F0ADFF00214FF48070B8
:1012F00001F0A8FF00BF80BD80B485B000AF78606A
:1013000039600023FB600023FB727B685B68FB6035
:10131000FB6823F0407323F48073FB603B681B7908
:101320001A023B681B681343FA681343FB607B682F
:10133000FA685A607B689B68FB60FA68174B134039
:10134000FB603B681A693B68DB681A433B689B6833
:101350001A433B685B795B001343FA681343FB60F5
:101360007B68FA689A607B68DB6AFB60FB6823F441
:101370007003FB603B681B7D013BDAB2FB7A1343D1
:10138000FB72FB7A1B05FA681343FB607B68FA6803
:10139000DA6200BF1437BD4680BC7047FDF7FFC05E
:1013A00080B483B000AF78607B6800221A607B68ED
:1013B00000221A717B6800225A717B6800229A60B1
:1013C0007B680022DA607B6800221A617B68012258
:1013D0001A7500BF0C37BD4680BC704780B485B01D
:1013E00000AF78600023FB600E4B5B68FB60FA681F
:1013F0000D4B1340FB607B681A687B685B681A437F
:101400007B689B681A437B68DB681343FA68134365
:10141000FB60044AFB68536000BF1437BD4680BCC4
:10142000704700BF00230140E030FCFF80B483B070
:1014300000AF78607B6800221A607B6800225A60E7
:101440007B6800229A607B680022DA6000BF0C375C
:10145000BD4680BC704700BF80B483B000AF7860E9
:101460000B46FB70FB78002B06D07B689B6843F033
:1014700001027B689A6005E07B689B6823F00102AB
:101480007B689A6000BF0C37BD4680BC704700BFC8
:1014900080B485B000AF786039600023FB607B6862
:1014A0005B68FB60FB6823F4400323F40073FB607C
:1014B000FA683B681343FB607B68FA685A6000BFB8
:1014C0001437BD4680BC704780B483B000AF7860ED
:1014D0000B467B8013463B807A887B685A623A8849
:1014E0007B689A6200BF0C37BD4680BC704700BF66
:1014F00080B485B000AF78600B46FB700023FB60C2
:101500007B685B68FB60FB6823F01F03FB60FB7874
:10151000FA681343FB607B68FA685A6000BF1437AF
:10152000BD4680BC704700BF80B483B000AF0346A7
:10153000FB71FB79002B06D0084A084B5B6843F42B
:101540000003536005E0054A044B5B6823F4000385
:10155000536000BF0C37BD4680BC7047002301407C
:1015600080B483B000AF0346FB71FB79002B06D03B
:10157000084A084B5B6843F48003536005E0054A62
:10158000044B5B6823F48003536000BF0C37BD46F7
:1015900080BC70470023014080B485B000AF786004
:1015A000084611461A460346FB700B46BB701346AD
:1015B0007B700023FB600023BB60FB78092B23D9E1
:1015C0007B68DB68FB60FB78A3F10A0213465B00D3
:1015D0001344072202FA03F3BB60BB68DB43FA68DB
:1015E0001340FB607978FB78A3F10A0213465B0095
:1015F000134401FA03F3BB60FA68BB681343FB6052
:101600007B68FA68DA601EE07B681B69FB60FA7829
:1016100013465B001344072202FA03F3BB60BB6866
:10162000DB43FA681340FB607978FA7813465B0075
:10163000134401FA03F3BB60FA68BB681343FB6011
:101640007B68FA681A61BB78062B21D87B685B6BD4
:10165000FB60BB785A1E13469B0013441F2202FAFC
:1016600003F3BB60BB68DB43FA681340FB60F978A7
:10167000BB785A1E13469B00134401FA03F3BB6068
:10168000FA68BB681343FB607B68FA685A6347E0FB
:10169000BB780C2B21D87B681B6BFB60BB78DA1FF7
:1016A00013469B0013441F2202FA03F3BB60BB687E
:1016B000DB43FA681340FB60F978BB78DA1F134606
:1016C0009B00134401FA03F3BB60FA68BB68134341
:1016D000FB607B68FA681A6322E07B68DB6AFB6068
:1016E000BB78A3F10D0213469B0013441F2202FA9C
:1016F00003F3BB60BB68DB43FA681340FB60F97817
:10170000BB78A3F10D0213469B00134401FA03F3C7
:10171000BB60FA68BB681343FB607B68FA68DA62F7
:1017200000BF1437BD4680BC704700BF80B483B093
:1017300000AF78607B689B6843F080427B689A606A
:1017400000BF0C37BD4680BC704700BF80B485B079
:1017500000AF78600023FB737B689B6803F08043D5
:10176000002B02D00123FB7301E00023FB73FB7B02
:1017700018461437BD4680BC704700BF80B483B0A4
:1017800000AF78600B46FB70FB78002B06D07B68BF
:101790009B6843F480627B689A6005E07B689B6885
:1017A00023F480627B689A6000BF0C37BD4680BC22
:1017B000704700BF80B483B000AF78600B46FB7009
:1017C000FB78002B06D07B689B6843F002027B68A5
:1017D0009A6005E07B689B6823F002027B689A6050
:1017E00000BF0C37BD4680BC704700BF80B485B0D9
:1017F00000AF78600B46FB700023FB600023BB60EA
:101800007B685B68FB60FB6823F46043FB60FB78EC
:10181000013BBB60BB685B03FA681343FB607B68FA
:10182000FA685A6000BF1437BD4680BC704700BFDD
:1018300080B483B000AF78600B46FB70FB78002B60
:1018400006D07B685B6843F400627B685A6005E001
:101850007B685B6823F400627B685A6000BF0C37CA
:10186000BD4680BC704700BF80B483B000AF7860D5
:101870007B68DB6C9BB218460C37BD4680BC70475A
:1018800080B400AF024B1B681846BD4680BC704751
:101890000823014080B483B000AF78600B46FB7032
:1018A000FB78002B06D07B689B6843F480727B68D2
:1018B0009A6005E07B689B6823F480727B689A607D
:1018C00000BF0C37BD4680BC704700BF80B483B0FA
:1018D00000AF78600B46FB70FB78002B06D07B686E
:1018E0009B6843F400727B689A6005E07B689B68A4
:1018F00023F400727B689A6000BF0C37BD4680BC41
:10190000704700BF80B483B000AF0346FB71FB7922
:10191000002B06D0084A084B5B6843F40053536021
:1019200005E0054A044B5B6823F40053536000BF95
:101930000C37BD4680BC70470023014080B487B09F
:1019400000AF7860084611461A460346FB700B4606
:10195000BB7013467B7000237B6100233B61002337
:10196000FB60FB78092B23D97B68DB687B61FB7804
:10197000A3F10A0213465B001344072202FA03F3A1
:101980003B613B69DB437A6913407B617978FB7883
:10199000A3F10A0213465B00134401FA03F33B610F
:1019A0007A693B6913437B617B687A69DA601EE080
:1019B0007B681B697B61FA7813465B00134407223E
:1019C00002FA03F33B613B69DB437A6913407B61B5
:1019D0007978FA7813465B00134401FA03F33B610C
:1019E0007A693B6913437B617B687A691A617B681A
:1019F0009B6B7B617B691B0D03F00303FB60FB6842
:101A0000DBB2BA78D31ADBB20233DBB21A46134622
:101A10009B0013441F2202FA03F33B613B69DB4343
:101A20007A6913407B61FA78FB68DBB2B978CB1A2C
:101A3000DBB20233DBB219460B469B000B4402FAC1
:101A400003F33B617A693B6913437B617B687A6985
:101A50009A6300BF1C37BD4680BC704780B485B018
:101A600000AF78600B46FB700023FB600023BB6077
:101A70007B689B6BFB60FB6823F44013FB60FB7887
:101A8000013BBB60BB681B05FA681343FB607B68C6
:101A9000FA689A6300BF1437BD4680BC704700BF28
:101AA00080B485B000AF78600B46FB7013463B8076
:101AB0000023FB607B68FB60FA78FB681344FB60E3
:101AC000FB681A463B88136000BF1437BD4680BCD4
:101AD000704700BF80B485B000AF786039600023E4
:101AE000FB607B689B68FB60FB6823F47023FB60F2
:101AF000FA683B681343FB607B68FA689A6000BF32
:101B00001437BD4680BC704780B485B000AF7860A4
:101B100039600023FB607B689B68FB60FB6823F4F3
:101B20004013FB60FA683B681343FB607B68FA680C
:101B30009A6000BF1437BD4680BC704780B483B044
:101B400000AF78607B689B6843F480027B689A6092
:101B500000BF0C37BD4680BC704700BF80B485B065
:101B600000AF78600023FB737B689B6803F48003FD
:101B7000002B02D00123FB7301E00023FB73FB7BEE
:101B800018461437BD4680BC704700BF80B483B090
:101B900000AF78600B46FB70FB78002B06D07B68AB
:101BA0005B6843F480627B685A6005E07B685B6831
:101BB00023F480627B685A6000BF0C37BD4680BC4E
:101BC000704700BF80B483B000AF78600B46FB70F5
:101BD000FB78002B06D07B685B6843F480527B68FF
:101BE0005A6005E07B685B6823F480527B685A602A
:101BF00000BF0C37BD4680BC704700BF80B485B0C5
:101C000000AF78600B46FB700023FB607B68FB60D5
:101C1000FA78FB6813442833FB60FB681B689BB2AF
:101C200018461437BD4680BC704700BF80B485B0ED
:101C300000AF78600B467B8013467B700023FB600F
:101C40007B88DBB2FB600122FB6802FA03F3FB60D6
:101C50007B78002B06D07B685A68FB681A437B6848
:101C60005A6006E07B685A68FB68DB431A407B6871
:101C70005A6000BF1437BD4680BC704780B485B041
:101C800000AF78600B46FB700023FB737B681A681B
:101C9000FB781340002B02D00123FB7301E00023EB
:101CA000FB73FB7B18461437BD4680BC704700BFF2
:101CB00080B483B000AF78600B46FB70FB78DA43EA
:101CC0007B681A6000BF0C37BD4680BC704700BF00
:101CD00080B487B000AF78600B467B800023FB7533
:101CE00000233B610023FB607B881B0A9BB23B61A6
:101CF0007B685A687B88DBB2194601238B4013400E
:101D0000FB607B681A683B691340002B05D0FB68B9
:101D1000002B02D00123FB7501E00023FB75FB7D46
:101D200018461C37BD4680BC704700BF80B485B0E4
:101D300000AF78600B467B800023FB737B881B0A17
:101D40009BB2FB73FB7BDA437B681A6000BF1437DE
:101D5000BD4680BC704700BF80B483B000AF7860E0
:101D60007B681B6823F001027B681A607B68002295
:101D70001A607B6800225A607B6800229A607B6848
:101D80000022DA607B6800221A617B6821225A6196
:101D90007B68454A934203D1444B3D229A607EE0E2
:101DA0007B68434A934204D1404B4FF474629A607B
:101DB00075E07B683F4A934204D13C4B4FF4741268
:101DC0009A606CE07B683C4A934204D1374B4FF0F9
:101DD00074629A6063E07B68384A934203D1334B64
:101DE000374ADA605BE07B68364A934203D12F4B77
:101DF000354ADA6053E07B68344A934203D12B4B77
:101E0000334ADA604BE07B68324A934204D1274B75
:101E10004FF03D52DA6042E07B682F4A934203D193
:101E20002E4B3D229A603AE07B682D4A934204D1C2
:101E30002A4B4FF474629A6031E07B68294A9342DE
:101E400004D1264B4FF474129A6028E07B68264A2E
:101E5000934204D1214B4FF074629A601FE07B687B
:101E6000224A934203D11D4B154ADA6017E07B6882
:101E70001F4A934203D1194B134ADA600FE07B6883
:101E80001C4A934203D1154B114ADA6007E07B6884
:101E9000194A934203D1114B4FF03D52DA6000BF13
:101EA0000C37BD4680BC70471060024000600240A5
:101EB000286002404060024058600240706002406A
:101EC0003D00002088600240400F0020A0600240DA
:101ED00000003D20B86002401064024000640240EF
:101EE000286402404064024058640240706402402A
:101EF00088640240A0640240B864024080B485B0A7
:101F000000AF786039600023FB607B681B68FB6072
:101F1000FA68244B1340FB603B681A683B68DB6837
:101F20001A433B685B691A433B689B691A433B68E9
:101F3000DB691A433B681B6A1A433B685B6A1A43B6
:101F40003B689B6A1A433B685B6B1A433B689B6B1D
:101F50001343FA681343FB607B68FA681A607B6876
:101F60005B69FB60FB6823F00703FB603B68DA6A90
:101F70003B681B6B1343FA681343FB607B68FA688A
:101F80005A613B681A697B685A603B685A687B688B
:101F90009A603B689A687B68DA6000BF1437BD4678
:101FA00080BC70473F801CF080B483B000AF786085
:101FB0007B6800221A607B6800225A607B680022DE
:101FC0009A607B680022DA607B6800221A617B6875
:101FD00000225A617B6800229A617B680022DA61E4
:101FE0007B6800221A627B6800225A627B680022AA
:101FF0009A627B680022DA627B6800221A637B683F
:1020000000225A637B6800229A6300BF0C37BD46EA
:1020100080BC704780B483B000AF78600B46FB7023
:10202000FB78002B06D07B681B6843F001027B68BD
:102030001A6005E07B681B6823F001027B681A6068
:1020400000BF0C37BD4680BC704700BF80B483B072
:1020500000AF786039603B68002B06D07B681B6856
:1020600043F400427B681A6005E07B681B6823F438
:1020700000427B681A6000BF0C37BD4680BC7047C9
:1020800080B483B000AF786039603B68002B06D025
:102090007B681B6843F020027B681A6005E07B6860
:1020A0001B6823F020027B681A6000BF0C37BD4616
:1020B00080BC704780B483B000AF78600B467B80F3
:1020C0007A887B685A6000BF0C37BD4680BC704779
:1020D00080B483B000AF78607B685B689BB21846C1
:1020E0000C37BD4680BC704780B485B000AFF86047
:1020F000B9607A607B68002B06D0FB681B6843F4EC
:102100000022FB681A6005E0FB681B6823F40022CC
:10211000FB681A60FB68BA681A6100BF1437BD46D5
:1021200080BC704780B483B000AF78600B46FB7012
:10213000FB78002B06D07B681B6843F480227B6809
:102140001A6005E07B681B6823F480227B681A60B4
:1021500000BF0C37BD4680BC704700BF80B485B05F
:1021600000AFF860B9607A607B68002B03D0FB6831
:10217000BA681A6102E0FB68BA68DA6000BF143717
:10218000BD4680BC704700BF80B485B000AF7860AA
:102190000023FB607B681B6803F40023002B02D044
:1021A0000123FB6001E00023FB60FB681846143745
:1021B000BD4680BC704700BF80B485B000AF78607A
:1021C0000023FB737B681B6803F00103002B02D024
:1021D0000123FB7301E00023FB73FB7B18461437DC
:1021E000BD4680BC704700BF80B485B000AF78604A
:1021F0000023FB607B685B6903F03803FB60FB68CE
:1022000018461437BD4680BC704700BF80B487B005
:1022100000AF786039600023FB750023FB607B68AA
:10222000144A934202D8144B3B6101E0134B3B61CB
:102230003B6803F00053002B03D03B695B68FB60F5
:1022400002E03B691B68FB60FB6823F0F02323F08E
:102250008213FB60FA683B681340002B02D0012315
:10226000FB7501E00023FB75FB7D18461C37BD465E
:1022700080BC70470F64024000600240006402406E
:1022800080B485B000AF786039607B68104A9342B3
:1022900002D8104BFB6001E00F4BFB603B6803F082
:1022A0000053002B07D03B6823F0F02323F0821368
:1022B000FA68D36006E03B6823F0F02323F0821332
:1022C000FA68936000BF1437BD4680BC704700BFFA
:1022D0000F640240006002400064024080B485B098
:1022E00000AFF860B9601346FB71BB6803F0800370
:1022F000002B0FD0FB79002B06D0FB685B6943F005
:102300008002FB685A6105E0FB685B6923F080028C
:10231000FB685A61BB68802B14D0FB79002B08D076
:10232000FB681A68BB6803F01E031A43FB681A6057
:1023300008E0FB681A68BB6803F01E03DB431A4021
:10234000FB681A6000BF1437BD4680BC704700BFF1
:1023500080B487B000AF786039600023FB7500233C
:10236000FB600023BB607B68214A934202D8214B6B
:102370003B6101E0204B3B613B6823F0F02323F0FD
:10238000C313002B0AD03B68DB0A03F01E03FB607B
:102390007B681A68FB681340BB6004E07B685B697C
:1023A00003F08003BB603B6803F00053002B03D0B5
:1023B0003B695B68FB6002E03B691B68FB60FB6894
:1023C00023F0F02323F08213FB60FA683B6813408C
:1023D000002B05D0BB68002B02D00123FB7501E068
:1023E0000023FB75FB7D18461C37BD4680BC70473B
:1023F0000F640240006002400064024080B485B077
:1024000000AF786039607B68104A934202D8104B65
:10241000FB6001E00F4BFB603B6803F00053002BB7
:1024200007D03B6823F0F02323F08213FA68D360CF
:1024300006E03B6823F0F02323F08213FA689360F0
:1024400000BF1437BD4680BC704700BF0F64024018
:10245000006002400064024080B582B000AF786046
:102460007B684B4A934208D10121012000F090FE85
:102470000021012000F08CFE86E07B68454A9342F3
:1024800008D10121022000F083FE0021022000F08B
:102490007FFE79E07B68404A934208D10121042005
:1024A00000F076FE0021042000F072FE6CE07B68F4
:1024B0003A4A934208D10121082000F069FE002128
:1024C000082000F065FE5FE07B68354A934208D142
:1024D0000121102000F05CFE0021102000F058FEC9
:1024E00052E07B682F4A934208D10121202000F05E
:1024F0004FFE0021202000F04BFE45E07B682A4A79
:10250000934208D10121402000F042FE00214020EA
:1025100000F03EFE38E07B68244A934208D1012156
:10252000802000F035FE0021802000F031FE2BE0FD
:102530007B681F4A93420AD101214FF4807000F05A
:1025400027FE00214FF4807000F022FE1CE07B6823
:10255000184A93420AD101214FF4007000F018FE8E
:1025600000214FF4007000F013FE0DE07B68124A6A
:10257000934209D101214FF4806000F009FE00214F
:102580004FF4806000F004FE00BF0837BD4680BDF8
:10259000000002400004024000080240000C02401B
:1025A000001002400014024000180240001C0240CB
:1025B00000200240002402400028024080B487B07E
:1025C00000AF7860396000237B6100233B6100230A
:1025D000FB6000237B6176E001227B6902FA03F352
:1025E0003B613B681A683B691340FB60FA683B69D2
:1025F0009A4265D17B681A687B695B00032101FA06
:1026000003F3DB431A407B681A607B681A683B68F7
:102610001B7919467B695B0001FA03F31A437B6857
:102620001A603B681B79012B03D03B681B79022B96
:102630002ED17B689A687B695B00032101FA03F362
:10264000DB431A407B689A607B689A683B685B79D9
:1026500019467B695B0001FA03F31A437B689A60B1
:102660007B685A687B699BB2194601238B40DB4328
:102670001A407B685A607B685B683A6892791146B9
:102680007A6992B201FA02F292B21A437B685A60F6
:102690007B68DA687B699BB25B00032101FA03F374
:1026A000DB431A407B68DA607B68DA683B68DB7979
:1026B00019467B695B0001FA03F31A437B68DA6011
:1026C0007B6901337B617B690F2B85D900BF1C3788
:1026D000BD4680BC704700BF80B483B000AF786057
:1026E0007B684FF6FF721A607B6800221A717B6864
:1026F00000225A717B6800229A717B680022DA718D
:1027000000BF0C37BD4680BC704700BF80B485B0A9
:1027100000AF78600B467B804FF48033FB607A8893
:10272000FB681343FB60FA687B68DA617A887B6830
:10273000DA61FA687B68DA617B68DB69FB607B6879
:10274000DB69FB6000BF1437BD4680BC704700BF2B
:1027500080B485B000AF78600B467B800023FB73AC
:102760007B681A697B881340002B02D00123FB731E
:1027700001E00023FB73FB7B18461437BD4680BC89
:10278000704700BF80B483B000AF78607B681B697E
:102790009BB218460C37BD4680BC704780B485B0EC
:1027A00000AF78600B467B800023FB737B685A691F
:1027B0007B881340002B02D00123FB7301E0002330
:1027C000FB73FB7B18461437BD4680BC704700BFC7
:1027D00080B483B000AF78607B685B699BB21846B9
:1027E0000C37BD4680BC704780B483B000AF7860C2
:1027F0000B467B807B687A881A8300BF0C37BD4606
:1028000080BC704780B483B000AF78600B467B809B
:102810007B687A885A8300BF0C37BD4680BC7047FE
:1028200080B483B000AF78600B467B8013467B702A
:102830007B78002B03D07B687A881A8302E07B6860
:102840007A885A8300BF0C37BD4680BC704700BFF2
:1028500080B483B000AF78600B467B807A887B6859
:102860005A6100BF0C37BD4680BC704780B483B04E
:1028700000AF78600B467B807B685A697B885A4042
:102880007B685A6100BF0C37BD4680BC704700BFF3
:1028900080B485B000AF78600B467B8013467B70B8
:1028A0000023FB600023BB607A787B8803F007037A
:1028B0009B0002FA03F3FB607B88DB089BB218469F
:1028C0007B88DB089BB21A467B68083253F82220CB
:1028D0007B8803F007039B000F2101FA03F3DB431E
:1028E00002EA03017B6800F1080243F822107B88AA
:1028F000DB089BB21A467B68083253F82220FB683B
:102900001343BB607B88DB089BB21A467B680832A6
:10291000B96843F8221000BF1437BD4680BC704729
:1029200080B400AF164A164B1B6843F001031360D6
:10293000134B00229A60124A114B1B6823F0A853D4
:1029400023F4102313600E4B0E4A5A600C4B0E4AB0
:10295000C3F884200A4B0D4AC3F88820084A084B64
:102960001B6823F480231360054B0022DA60044BBC
:102970000022C3F88C2000BFBD4680BC704700BF5A
:1029800000380240103000240030002000300024C5
:1029900080B483B000AF0346FB71054B00221A7070
:1029A000034AFB79137000BF0C37BD4680BC7047EB
:1029B0000238024080B582B000AF00233B600023A4
:1029C000FB710023BB71312000F014FD0346BB7185
:1029D0003B6801333B603B68002B02D0BB79002B86
:1029E000F1D0312000F006FD0346002B02D0012378
:1029F000FB7101E00023FB71FB7918460837BD46E7
:102A000080BD00BF80B485B000AF0346FB710023DA
:102A1000FB600A4B1B68FB60FB6823F0F803FB605C
:102A2000FB79DB00FA681343FB60044AFB68136020
:102A300000BF1437BD4680BC704700BF003802405D
:102A400080B483B000AF0346FB71044AFB79136086
:102A500000BF0C37BD4680BC704700BF0000474236
:102A600080B483B000AF0346FB710C4B00221A7098
:102A70000A4B00221A70FB79012B02D0042B04D0E0
:102A800007E0064B01221A7003E0044B05221A707E
:102A900000BF00BF0C37BD4680BC70477038024095
:102AA00080B483B000AF0346FB71044AFB79136026
:102AB00000BF0C37BD4680BC704700BF800E474248
:102AC00080B485B000AFF860B9607A603B600A49B5
:102AD0007B689A01BB681A433B685B08013B1B0497
:102AE0001A43FB681A43BB691B0613434B6000BFC4
:102AF0001437BD4680BC70470038024080B483B0B4
:102B000000AF0346FB71044AFB79136000BF0C372A
:102B1000BD4680BC704700BF6000474280B483B0B0
:102B200000AF7860396006497B689A013B681B07F3
:102B30001343C1F8843000BF0C37BD4680BC7047DA
:102B40000038024080B483B000AF0346FB71044AF2
:102B5000FB79136000BF0C37BD4680BC704700BFD7
:102B60006800474280B485B000AFF860B9607A6011
:102B70000749FB689A01BB681B061A437B681B0761
:102B80001343C1F8883000BF1437BD4680BC70477E
:102B90000038024080B483B000AF0346FB71044AA2
:102BA000FB79136000BF0C37BD4680BC704700BF87
:102BB0007000474280B483B000AF0346FB71044A03
:102BC000FB79136000BF0C37BD4680BC704700BF67
:102BD0004C00474280B485B000AF78603960002374
:102BE000FB600A4B9B68FB60FB6823F0EC63FB60B7
:102BF0007A683B681343FA681343FB60034AFB6837
:102C0000936000BF1437BD4680BC70470038024057
:102C100080B485B000AF786039600023FB600A4B58
:102C20009B68FB60FB6823F07843FB607A683B6835
:102C30001343FA681343FB60034AFB68936000BFC9
:102C40001437BD4680BC70470038024080B485B060
:102C500000AF78600023FB60094B9B68FB60FB685A
:102C600023F00303FB60FA687B681343FB60044AAC
:102C7000FB68936000BF1437BD4680BC704700BF3F
:102C80000038024080B400AF044B9B68DBB203F015
:102C90000C03DBB21846BD4680BC704700380240CA
:102CA00080B485B000AF78600023FB60094B9B685F
:102CB000FB60FB6823F0F003FB60FA687B6813435A
:102CC000FB60044AFB68936000BF1437BD4680BCBC
:102CD000704700BF0038024080B485B000AF786014
:102CE0000023FB60094B9B68FB60FB6823F4E05307
:102CF000FB60FA687B681343FB60044AFB689360DF
:102D000000BF1437BD4680BC704700BF003802408A
:102D100080B485B000AF78600023FB60094B9B68EE
:102D2000FB60FB6823F46043FB607B68DB00FA68B0
:102D30001343FB60034AFB68936000BF1437BD4632
:102D400080BC70470038024080B489B000AF786022
:102D50000023BB6100237B610023FB6102233B61F5
:102D60000023FB600223BB60484B9B6803F00C030D
:102D7000BB61BB69042B07D0082B09D0002B3FD1C6
:102D80007B68434A1A603FE07B68424A1A603BE036
:102D90003E4B5B6803F480039B0DFB603B4B5B6821
:102DA00003F03F03BB60FB68002B0DD0394ABB68C2
:102DB000B2FBF3F2354B596847F6C0730B409B09E1
:102DC00003FB02F3FB610CE0314ABB68B2FBF3F298
:102DD0002E4B596847F6C0730B409B0903FB02F367
:102DE000FB612A4B5B6803F440331B0C01335B002F
:102DF0003B61FA693B69B2FBF3F27B681A6003E05E
:102E00007B68234A1A6000BF204B9B6803F0F003E5
:102E1000BB61BB691B09BB611F4ABB6913441B78BB
:102E2000DBB27B617B681A687B69DA407B685A6039
:102E3000164B9B6803F4E053BB61BB699B0ABB6103
:102E4000154ABB6913441B78DBB27B617B685A6807
:102E50007B69DA407B689A600C4B9B6803F46043A3
:102E6000BB61BB695B0BBB610B4ABB6913441B783D
:102E7000DBB27B617B685A687B69DA407B68DA6029
:102E800000BF2437BD4680BC704700BF00380240F9
:102E90000024F40000127A001C00002080B485B0E9
:102EA00000AF78600023FB607B6803F44073B3F5E8
:102EB000407F11D10F4B9B68FB60FB6823F4F81334
:102EC000FB607B6823F0704323F44073FA6813437C
:102ED000FB60084AFB6893600649064B1A6F7B68E3
:102EE000C3F30B0313430B6700BF1437BD4680BC0D
:102EF000704700BF0038024080B483B000AF034683
:102F0000FB71044AFB79136000BF0C37BD4680BCDF
:102F1000704700BF3C0E474280B483B000AF034609
:102F2000FB71044AFB79136000BF0C37BD4680BCBF
:102F3000704700BF400E474280B483B000AF786056
:102F4000034A7B68136000BF0C37BD4680BC7047E6
:102F50005C01474280B485B000AF78600023FB601D
:102F60000A4BD3F88C30FB60FB6823F44013FB6002
:102F7000FA687B681343FB60044AFB68C2F88C3034
:102F800000BF1437BD4680BC704700BF0038024008
:102F900080B485B000AF78600023FB600A4BD3F8A3
:102FA0008C30FB60FB6823F44003FB60FA687B68AD
:102FB0001343FB60044AFB68C2F88C3000BF14372F
:102FC000BD4680BC704700BF0038024080B485B069
:102FD00000AF78600023FB600A4BD3F88C30FB60B5
:102FE000FB6823F01F03FB607B68013BFA68134317
:102FF000FB60044AFB68C2F88C3000BF1437BD4642
:1030000080BC70470038024080B485B000AF786063
:103010000023FB600B4BD3F88C30FB60FB6823F480
:10302000F853FB607B68013B1B02FA681343FB60AB
:10303000044AFB68C2F88C3000BF1437BD4680BC20
:10304000704700BF0038024080B485B000AF7860A0
:103050000023FB600A4BD3F88C30FB60FB6823F441
:103060004033FB60FA687B681343FB60044AFB68EB
:10307000C2F88C3000BF1437BD4680BC704700BF1B
:103080000038024080B483B000AF7860034A7B68A8
:10309000136000BF0C37BD4680BC7047E01147424B
:1030A00080B483B000AF78600B46FB70FB78002BD8
:1030B00006D00949084B1A6B7B6813430B6306E083
:1030C0000549054B1A6B7B68DB4313400B6300BF5C
:1030D0000C37BD4680BC70470038024080B483B0D6
:1030E00000AF78600B46FB70FB78002B06D00949D7
:1030F000084B5A6B7B6813434B6306E00549054B4D
:103100005A6B7B68DB4313404B6300BF0C37BD46F3
:1031100080BC70470038024080B483B000AF786054
:103120000B46FB70FB78002B06D00949084B1A6C44
:103130007B6813430B6406E00549054B1A6C7B68FA
:10314000DB4313400B6400BF0C37BD4680BC7047A7
:103150000038024080B483B000AF78600B46FB704B
:10316000FB78002B06D00949084B5A6C7B68134347
:103170004B6406E00549054B5A6C7B68DB43134002
:103180004B6400BF0C37BD4680BC7047003802401E
:1031900080B483B000AF78600B46FB70FB78002BE7
:1031A00006D00949084B1A697B6813430B6106E096
:1031B0000549054B1A697B68DB4313400B6100BF6F
:1031C0000C37BD4680BC70470038024080B483B0E5
:1031D00000AF78600B46FB70FB78002B06D00949E6
:1031E000084B5A697B6813434B6106E00549054B60
:1031F0005A697B68DB4313404B6100BF0C37BD4607
:1032000080BC70470038024080B483B000AF786063
:103210000B46FB70FB78002B06D00949084B1A6A55
:103220007B6813430B6206E00549054B1A6A7B680D
:10323000DB4313400B6200BF0C37BD4680BC7047B8
:103240000038024080B483B000AF78600B46FB705A
:10325000FB78002B06D00949084B5A6A7B68134358
:103260004B6206E00549054B5A6A7B68DB43134015
:103270004B6200BF0C37BD4680BC7047003802402F
:1032800080B483B000AF78600B46FB70FB78002BF6
:1032900006D00949084B1A6D7B6813430B6506E09D
:1032A0000549054B1A6D7B68DB4313400B6500BF76
:1032B0000C37BD4680BC70470038024080B483B0F4
:1032C00000AF78600B46FB70FB78002B06D00949F5
:1032D000084B5A6D7B6813434B6506E00549054B67
:1032E0005A6D7B68DB4313404B6500BF0C37BD460E
:1032F00080BC70470038024080B483B000AF786073
:103300000B46FB70FB78002B06D00949084B1A6E60
:103310007B6813430B6606E00549054B1A6E7B6814
:10332000DB4313400B6600BF0C37BD4680BC7047C3
:103330000038024080B483B000AF78600B46FB7069
:10334000FB78002B06D00949084B5A6E7B68134363
:103350004B6606E00549054B5A6E7B68DB4313401C
:103360004B6600BF0C37BD4680BC7047003802403A
:1033700080B483B000AF0346FB71FB79012B06D10B
:10338000084A084B1B6F43F00803136705E0054A22
:10339000044B1B6F23F00803136700BF0C37BD46B7
:1033A00080BC70470038024080B483B000AF034651
:1033B0000A46FB711346BB71BB79002B08D00C4940
:1033C0000B4B1B78DAB2FB791343DBB20B7009E0CD
:1033D0000749074B1B78DAB2FB79DB43DBB21340BA
:1033E000DBB20B7000BF0C37BD4680BC704700BF1E
:1033F0000D38024080B487B000AF0346FB71002354
:10340000FB6000237B610023FB74FB795B09DBB26B
:10341000FB60FB68012B03D1124B1B687B6109E049
:10342000FB68022B03D10F4B1B6F7B6102E00D4B3E
:103430005B6F7B61FB7903F01F03FB607A69FB68BC
:1034400022FA03F303F00103002B02D00123FB74E3
:1034500001E00023FB74FB7C18461C37BD4680BC92
:10346000704700BF0038024080B400AF044A044BEC
:103470005B6F43F08073536700BFBD4680BC7047ED
:103480000038024080B485B000AF0346FB710023D2
:10349000FB73084BDA68FB791340002B02D0012341
:1034A000FB7301E00023FB73FB7B18461437BD461A
:1034B00080BC70470038024080B483B000AF034640
:1034C000FB71044AFB79137000BF0C37BD4680BC0A
:1034D000704700BF0E38024080B582B000AF786000
:1034E0007B68604A934208D101210120FFF7AAFEC0
:1034F00000210120FFF7A6FEAFE07B68B3F1804F0B
:1035000008D101210120FFF77FFE00210120FFF7F4
:103510007BFEA2E07B68544A934208D1012102203D
:10352000FFF772FE00210220FFF76EFE95E07B6838
:103530004E4A934208D101210420FFF765FE002185
:103540000420FFF761FE88E07B68494A934208D176
:1035500001210820FFF758FE00210820FFF754FE44
:103560007BE07B68434A934208D101211020FFF79A
:103570004BFE00211020FFF747FE6EE07B683E4ABD
:10358000934208D101212020FFF73EFE0021202098
:10359000FFF73AFE61E07B68384A934208D1012187
:1035A0000220FFF74FFE00210220FFF74BFE54E000
:1035B0007B68334A93420AD101214FF48030FFF7F0
:1035C00041FE00214FF48030FFF73CFE45E07B6870
:1035D0002C4A93420AD101214FF40030FFF732FE0A
:1035E00000214FF40030FFF72DFE36E07B68264ABD
:1035F00093420AD101214FF48020FFF723FE0021DE
:103600004FF48020FFF71EFE27E07B681F4A93429D
:1036100008D101214020FFF7F7FD00214020FFF7EE
:10362000F3FD1AE07B681A4A934208D101218020F9
:10363000FFF7EAFD00218020FFF7E6FD0DE07B6843
:10364000144A934209D101214FF48070FFF7DCFD49
:1036500000214FF48070FFF7D7FD00BF0837BD464B
:1036600080BD00BF00000140000400400008004091
:10367000000C004000100040001400400004014015
:103680000040014000440140004801400018004053
:10369000001C00400020004080B485B000AF78607E
:1036A00039600023FB817B681B88FB817B68284A8B
:1036B000934213D07B68274A93420FD07B68B3F1C3
:1036C000804F0BD07B68244A934207D07B68234A03
:1036D000934203D07B68224A934208D1FB8923F0AE
:1036E0007003FB813B685A88FB891343FB817B682D
:1036F0001C4A93420CD07B681B4A934208D0FB893A
:1037000023F44073FB813B681A89FB891343FB81D7
:103710007B68FA891A803B685A687B68DA623B6882
:103720001A887B681A857B68094A934203D07B68B4
:10373000084A934204D13B689B7A9AB27B681A8606
:103740007B6801229A8200BF1437BD4680BC704757
:103750000000014000040140000400400008004057
:10376000000C0040001000400014004080B483B002
:1037700000AF78607B684FF0FF325A607B680022B0
:103780001A807B6800221A817B6800225A807B683D
:1037900000229A7200BF0C37BD4680BC704700BF44
:1037A00080B483B000AF78600B467B8013463B80CB
:1037B0007B687A881A857B683A889A8200BF0C37C2
:1037C000BD4680BC704700BF80B485B000AF786054
:1037D0000B467B800023FB817B681B88FB81FB8978
:1037E00023F07003FB81FA897B881343FB817B689C
:1037F000FA891A8000BF1437BD4680BC704700BFED
:1038000080B483B000AF786039607B683A685A62F0
:1038100000BF0C37BD4680BC704700BF80B483B08A
:1038200000AF786039607B683A68DA6200BF0C37B5
:10383000BD4680BC704700BF80B483B000AF7860E5
:103840007B685B6A18460C37BD4680BC704700BF7A
:1038500080B483B000AF78607B681B8D9BB2184644
:103860000C37BD4680BC704780B483B000AF786031
:103870000B46FB70FB78002B08D07B681B889BB243
:1038800043F002039AB27B681A8007E07B681B88CA
:103890009BB223F002039AB27B681A8000BF0C37F8
:1038A000BD4680BC704700BF80B483B000AF786075
:1038B0000B467B807B88002B08D07B681B889BB2E3
:1038C00043F004039AB27B681A8007E07B681B8888
:1038D0009BB223F004039AB27B681A8000BF0C37B6
:1038E000BD4680BC704700BF80B483B000AF786035
:1038F0000B46FB70FB78002B08D07B681B889BB2C3
:1039000043F080039AB27B681A8007E07B681B88CB
:103910009BB223F080039AB27B681A8000BF0C37F9
:10392000BD4680BC704700BF80B483B000AF7860F4
:103930000B467B807B681B889BB223F008039AB2FE
:103940007B681A807B681B889AB27B8813439AB283
:103950007B681A8000BF0C37BD4680BC704700BF33
:1039600080B483B000AF78600B467B807B681B8897
:103970009BB223F440739AB27B681A807B681B88E1
:103980009AB27B8813439AB27B681A8000BF0C37C7
:10399000BD4680BC704700BF80B483B000AF786084
:1039A0000B46FB70FB78002B08D07B681B889BB212
:1039B00043F001039AB27B681A8007E07B681B889A
:1039C0009BB223F001039AB27B681A8000BF0C37C8
:1039D000BD4680BC704700BF80B485B000AF786042
:1039E000396000237B810023FB810023BB817B683E
:1039F0001B8C9BB223F001039AB27B681A847B680C
:103A00001B8CFB817B689B88BB817B681B8B7B81CC
:103A10007B8923F070037B817B8923F003037B8107
:103A20003B681A887B8913437B81FB8923F002035F
:103A3000FB813B689A89FB891343FB813B685A8869
:103A4000FB891343FB817B681E4A934203D07B684A
:103A50001D4A934223D1FB8923F00803FB813B6875
:103A6000DA89FB891343FB81FB8923F00403FB8183
:103A70003B689A88FB891343FB81BB8923F48073DD
:103A8000BB81BB8923F40073BB813B681A8ABB8965
:103A90001343BB813B685A8ABB891343BB817B6854
:103AA000BA899A807B687A891A833B689A687B68AE
:103AB0005A637B68FA891A8400BF1437BD4680BCFC
:103AC000704700BF000001400004014080B485B091
:103AD00000AF7860396000237B810023FB810023E5
:103AE000BB817B681B8C9BB223F010039AB27B686E
:103AF0001A847B681B8CFB817B689B88BB817B68FD
:103B00001B8B7B817B8923F4E0437B817B8923F4BE
:103B100040737B813B681B881B029AB27B891343ED
:103B20007B81FB8923F02003FB813B689B891B0180
:103B30009AB2FB891343FB813B685B881B019AB2F5
:103B4000FB891343FB817B68224A934203D07B6845
:103B5000214A93422BD1FB8923F08003FB813B68F0
:103B6000DB891B019AB2FB891343FB81FB8923F09C
:103B70004003FB813B689B881B019AB2FB8913437E
:103B8000FB81BB8923F48063BB81BB8923F4006381
:103B9000BB813B681B8A9B009AB2BB891343BB81E4
:103BA0003B685B8A9B009AB2BB891343BB817B68ED
:103BB000BA899A807B687A891A833B689A687B689D
:103BC0009A637B68FA891A8400BF1437BD4680BCAB
:103BD000704700BF000001400004014080B485B080
:103BE00000AF7860396000237B810023FB810023D4
:103BF000BB817B681B8C9BB223F480739AB27B6879
:103C00001A847B681B8CFB817B689B88BB817B68EB
:103C10009B8B7B817B8923F070037B817B8923F0E5
:103C200003037B813B681A887B8913437B81FB8973
:103C300023F40073FB813B689B891B029AB2FB89CA
:103C40001343FB813B685B881B029AB2FB891343D9
:103C5000FB817B68224A934203D07B68214A9342CE
:103C60002BD1FB8923F40063FB813B68DB891B02BA
:103C70009AB2FB891343FB81FB8923F48063FB81A8
:103C80003B689B881B029AB2FB891343FB81BB896B
:103C900023F48053BB81BB8923F40053BB813B6871
:103CA0001B8A1B019AB2BB891343BB813B685B8AA9
:103CB0001B019AB2BB891343BB817B68BA899A8086
:103CC0007B687A899A833B689A687B68DA637B6849
:103CD000FA891A8400BF1437BD4680BC704700BF04
:103CE000000001400004014080B485B000AF78605E
:103CF00039600023BB8100237B810023FB817B682B
:103D00001B8C9BB223F480539AB27B681A847B6825
:103D10001B8C7B817B689B88FB817B689B8BBB8139
:103D2000BB8923F4E043BB81BB8923F44073BB818F
:103D30003B681B881B029AB2BB891343BB817B89FA
:103D400023F400537B813B689B891B039AB27B89D8
:103D500013437B813B685B881B039AB27B891343C7
:103D60007B817B68114A934203D07B68104A93425F
:103D70000AD1FB8923F48043FB813B681B8A9B01AA
:103D80009AB2FB891343FB817B68FA899A807B682E
:103D9000BA899A833B689A687B681A647B687A89D7
:103DA0001A8400BF1437BD4680BC70470000014034
:103DB0000004014080B483B000AF78607B680022CB
:103DC0001A807B6800225A807B6800229A807B6878
:103DD00000229A607B6800229A817B680022DA8147
:103DE0007B6800221A827B6800225A8200BF0C374F
:103DF000BD4680BC704700BF80B485B000AF78601E
:103E00000B467B8013463B800023FB6000237B81B5
:103E10007B68FB60FB681833FB607B88012202FA39
:103E200003F37B817B681B8C9AB27B89DB439BB25B
:103E300013409AB27B681A847B88002B02D07B885F
:103E4000082B14D17B885B089BB21A46FB6813448D
:103E5000FB60FA68FB6819684FF68F730B401360BC
:103E6000FB68FA6811683A880A431A6017E07B8891
:103E7000043B9BB25B089BB21A46FB681344FB6091
:103E8000FA68FB68196848F6FF730B401360FB681B
:103E9000FA6812683988090289B20A431A6000BFB9
:103EA0001437BD4680BC704780B483B000AF7860E3
:103EB00039607B683A685A6300BF0C37BD4680BCE6
:103EC000704700BF80B483B000AF786039607B6812
:103ED0003A689A6300BF0C37BD4680BC704700BF8C
:103EE00080B483B000AF786039607B683A68DA6389
:103EF00000BF0C37BD4680BC704700BF80B483B0A4
:103F000000AF786039607B683A681A6400BF0C378C
:103F1000BD4680BC704700BF80B485B000AF7860FC
:103F20000B467B800023FB817B681B8BFB81FB891D
:103F300023F07003FB81FA897B881343FB817B6844
:103F4000FA891A8300BF1437BD4680BC704700BF92
:103F500080B485B000AF78600B467B800023FB8186
:103F60007B681B8BFB81FB8923F4E043FB817B880F
:103F70001B029AB2FB891343FB817B68FA891A837F
:103F800000BF1437BD4680BC704700BF80B485B009
:103F900000AF78600B467B800023FB817B689B8BA6
:103FA000FB81FB8923F07003FB81FA897B88134333
:103FB000FB817B68FA899A8300BF1437BD4680BCB9
:103FC000704700BF80B485B000AF78600B467B803F
:103FD0000023FB817B689B8BFB81FB8923F4E043FF
:103FE000FB817B881B029AB2FB891343FB817B68B0
:103FF000FA899A8300BF1437BD4680BC704700BF62
:1040000080B485B000AF78600B467B800023FB81D5
:104010007B681B8BFB81FB8923F00803FB81FA89FA
:104020007B881343FB817B68FA891A8300BF1437AE
:10403000BD4680BC704700BF80B485B000AF7860DB
:104040000B467B800023FB817B681B8BFB81FB89FC
:1040500023F40063FB817B881B029AB2FB89134324
:10406000FB817B68FA891A8300BF1437BD4680BC88
:10407000704700BF80B485B000AF78600B467B808E
:104080000023FB817B689B8BFB81FB8923F008036A
:10409000FB81FA897B881343FB817B68FA899A83C9
:1040A00000BF1437BD4680BC704700BF80B485B0E8
:1040B00000AF78600B467B800023FB817B689B8B85
:1040C000FB81FB8923F40063FB817B881B029AB28E
:1040D000FB891343FB817B68FA899A8300BF1437FD
:1040E000BD4680BC704700BF80B485B000AF78602B
:1040F0000B467B800023FB817B681B8BFB81FB894C
:1041000023F00403FB81FA897B881343FB817B68DE
:10411000FA891A8300BF1437BD4680BC704700BFC0
:1041200080B485B000AF78600B467B800023FB81B4
:104130007B681B8BFB81FB8923F48063FB817B887D
:104140001B029AB2FB891343FB817B68FA891A83AD
:1041500000BF1437BD4680BC704700BF80B485B037
:1041600000AF78600B467B800023FB817B689B8BD4
:10417000FB81FB8923F00403FB81FA897B881343CD
:10418000FB817B68FA899A8300BF1437BD4680BCE7
:10419000704700BF80B485B000AF78600B467B806D
:1041A0000023FB817B689B8BFB81FB8923F480636D
:1041B000FB817B881B029AB2FB891343FB817B68DE
:1041C000FA899A8300BF1437BD4680BC704700BF90
:1041D00080B485B000AF78600B467B800023FB8104
:1041E0007B681B8BFB81FB8923F08003FB81FA89B1
:1041F0007B881343FB817B68FA891A8300BF1437DD
:10420000BD4680BC704700BF80B485B000AF786009
:104210000B467B800023FB817B681B8BFB81FB892A
:10422000C3F30E03FB817B881B029AB2FB89134305
:10423000FB817B68FA891A8300BF1437BD4680BCB6
:10424000704700BF80B485B000AF78600B467B80BC
:104250000023FB817B689B8BFB81FB8923F0800320
:10426000FB81FA897B881343FB817B68FA899A83F7
:1042700000BF1437BD4680BC704700BF80B485B016
:1042800000AF78600B467B800023FB817B689B8BB3
:10429000FB81FB89C3F30E03FB817B881B029AB26F
:1042A000FB891343FB817B68FA899A8300BF14372B
:1042B000BD4680BC704700BF80B485B000AF786059
:1042C0000B467B800023FB817B681B8CFB81FB8979
:1042D00023F00203FB81FA897B881343FB817B680F
:1042E000FA891A8400BF1437BD4680BC704700BFEE
:1042F00080B485B000AF78600B467B800023FB81E3
:104300007B681B8CFB81FB8923F00803FB81FA8906
:104310007B881343FB817B68FA891A8400BF1437BA
:10432000BD4680BC704700BF80B485B000AF7860E8
:104330000B467B800023FB817B681B8CFB81FB8908
:1043400023F02003FB817B881B019AB2FB89134376
:10435000FB817B68FA891A8400BF1437BD4680BC94
:10436000704700BF80B485B000AF78600B467B809B
:104370000023FB817B681B8CFB81FB8923F080037E
:10438000FB817B881B019AB2FB891343FB817B680D
:10439000FA891A8400BF1437BD4680BC704700BF3D
:1043A00080B485B000AF78600B467B800023FB8132
:1043B0007B681B8CFB81FB8923F40073FB817B886A
:1043C0001B029AB2FB891343FB817B68FA891A842A
:1043D00000BF1437BD4680BC704700BF80B485B0B5
:1043E00000AF78600B467B800023FB817B681B8CD1
:1043F000FB81FB8923F40063FB817B881B029AB25B
:10440000FB891343FB817B68FA891A8400BF143748
:10441000BD4680BC704700BF80B485B000AF7860F7
:104420000B467B800023FB817B681B8CFB81FB8917
:1044300023F40053FB817B881B039AB2FB8913434F
:10444000FB817B68FA891A8400BF1437BD4680BCA3
:10445000704700BF80B485B000AF78600B467B80AA
:1044600013463B800023FB817B88012202FA03F381
:10447000FB817B681B8C9AB2FB89DB439BB21340A8
:104480009AB27B681A847B681B8C9AB239887B88C5
:1044900001FA03F39BB213439AB27B681A8400BFFC
:1044A0001437BD4680BC704780B485B000AF7860DB
:1044B0000B467B8013463B800023FB817B880422D4
:1044C00002FA03F3FB817B681B8C9AB2FB89DB4306
:1044D0009BB213409AB27B681A847B681B8C9AB299
:1044E00039887B8801FA03F39BB213439AB27B6845
:1044F0001A8400BF1437BD4680BC704780B582B0B7
:1045000000AF786039603B681B88002B0FD13B6897
:1045100059883B689A883B681B89786800F0B4FC2E
:104520003B68DB881946786800F0E0F836E03B68C5
:104530001B88042B0FD13B6859883B689A883B68DD
:104540001B89786800F0E2FC3B68DB8819467868D4
:1045500000F0E8F822E03B681B88082B0FD13B688D
:1045600059883B689A883B681B89786800F01AFD77
:104570003B68DB881946786800F0F2F80EE03B688B
:1045800059883B689A883B681B89786800F052FD1F
:104590003B68DB881946786800F0FEF800BF0837F2
:1045A000BD4680BD80B483B000AF78607B680022D8
:1045B0001A807B6800225A807B6801229A807B687F
:1045C0000022DA807B6800221A8100BF0C37BD46CA
:1045D00080BC704780B584B000AF7860396000233C
:1045E000FB810123BB813B685B88002B02D1022346
:1045F000FB8101E00023FB813B689B88012B02D1FA
:104600000223BB8101E00123BB813B681B88002B97
:104610001CD13B6859883B689A883B681B8978683D
:1046200000F032FC3B68DB881946786800F05EF8E1
:104630003B681B89BA89F989786800F067FC3B6898
:10464000DB881946786800F06DF81BE03B685988F4
:104650003B689A883B681B89786800F057FC3B6888
:10466000DB881946786800F05DF83B681B89BA89D9
:10467000F989786800F008FC3B68DB88194678689F
:1046800000F034F800BF1037BD4680BD80B483B061
:1046900000AF78607B685B6B18460C37BD4680BC0A
:1046A000704700BF80B483B000AF78607B689B6BBD
:1046B00018460C37BD4680BC704700BF80B483B03D
:1046C00000AF78607B68DB6B18460C37BD4680BC5A
:1046D000704700BF80B483B000AF78607B681B6C0C
:1046E00018460C37BD4680BC704700BF80B483B00D
:1046F00000AF78600B467B807B681B8B9BB223F0FE
:104700000C039AB27B681A837B681B8B9AB27B88F6
:1047100013439AB27B681A8300BF0C37BD4680BC36
:10472000704700BF80B483B000AF78600B467B80D9
:104730007B681B8B9BB223F440639AB27B681A831D
:104740007B681B8B9AB27B881B029BB213439AB285
:104750007B681A8300BF0C37BD4680BC704700BF22
:1047600080B483B000AF78600B467B807B689B8B06
:104770009BB223F00C039AB27B689A837B689B8B75
:104780009AB27B8813439AB27B689A8300BF0C3736
:10479000BD4680BC704700BF80B483B000AF786076
:1047A0000B467B807B689B8B9BB223F440639AB261
:1047B0007B689A837B689B8B9AB27B881B029BB237
:1047C00013439AB27B689A8300BF0C37BD4680BC06
:1047D000704700BF80B483B000AF786039603B6839
:1047E0001A883B685B8813439AB23B689B881343E3
:1047F0009AB23B68DB8813439AB23B681B89134328
:104800009AB23B685B8913439AB23B689B89134316
:104810009AB27B68A3F8442000BF0C37BD4680BC29
:10482000704700BF80B483B000AF78607B6800221F
:104830001A807B6800225A807B6800229A807B68FD
:104840000022DA807B6800221A817B6800225A816C
:104850007B6800229A8100BF0C37BD4680BC704740
:1048600080B483B000AF78600B46FB70FB78002B00
:104870000CD07B68B3F844309BB26FEA43436FEAD5
:1048800053439AB27B68A3F8442009E07B68B3F8ED
:1048900044309BB2C3F30E039AB27B68A3F8442062
:1048A00000BF0C37BD4680BC704700BF80B483B0EA
:1048B00000AF78600B46FB70FB78002B08D07B685C
:1048C0009B889BB243F004039AB27B689A8007E00E
:1048D0007B689B889BB223F004039AB27B689A8022
:1048E00000BF0C37BD4680BC704700BF80B483B0AA
:1048F00000AF78600B46FB70FB78002B08D07B681C
:104900009B889BB243F001039AB27B689A8007E0D0
:104910007B689B889BB223F001039AB27B689A80E4
:1049200000BF0C37BD4680BC704700BF80B483B069
:1049300000AF78600B467B8013467B707B78002B42
:1049400008D07B689B899AB27B8813439AB27B68B4
:104950009A8109E07B689B899AB27B88DB439BB292
:1049600013409AB27B689A8100BF0C37BD4680BC69
:10497000704700BF80B483B000AF78600B467B8087
:104980007B687A889A8200BF0C37BD4680BC70472E
:1049900080B485B000AF78600B467B800023FB734A
:1049A0007B681B8A9AB27B8813409BB2002B02D093
:1049B0000123FB7301E00023FB73FB7B18461437D4
:1049C000BD4680BC704700BF80B483B000AF786044
:1049D0000B467B807B88DB439AB27B681A8200BFE0
:1049E0000C37BD4680BC704780B485B000AF78609E
:1049F0000B467B800023FB730023BB8100237B815C
:104A00007B681B8A9AB27B881340BB817B689B8939
:104A10009AB27B8813407B81BB89002B05D07B89B0
:104A2000002B02D00123FB7301E00023FB73FB7B0F
:104A300018461437BD4680BC704700BF80B483B0B1
:104A400000AF78600B467B807B88DB439AB27B6843
:104A50001A8200BF0C37BD4680BC704780B483B05B
:104A600000AF78600B467B8013463B807A883B889A
:104A700013439AB27B68A3F8482000BF0C37BD46A9
:104A800080BC704780B483B000AF78600B467B80F9
:104A900013467B707B78002B08D07B689B899AB289
:104AA0007B8813439AB27B689A8109E07B689B8973
:104AB0009AB27B88DB439BB213409AB27B689A819F
:104AC00000BF0C37BD4680BC704700BF80B483B0C8
:104AD00000AF78600B46FB70FB78002B08D07B683A
:104AE0009B889BB243F008039AB27B689A8007E0E8
:104AF0007B689B889BB223F008039AB27B689A80FC
:104B000000BF0C37BD4680BC704700BF80B483B087
:104B100000AF78607B681B899BB223F007039AB2D1
:104B20007B681A8100BF0C37BD4680BC704700BF50
:104B300080B582B000AF78600B467B807B881946D9
:104B4000786800F08BF87B681B899BB243F0070301
:104B50009AB27B681A8100BF0837BD4680BD00BF8E
:104B600080B584B000AFF860084611461A46034687
:104B70007B810B463B811346FB807B89602B06D1F2
:104B8000FB8839890122F86800F0C0F905E0FB884C
:104B900039890122F86800F077F97B891946F868AD
:104BA00000F05CF8FB681B899BB243F007039AB2E4
:104BB000FB681A8100BF1037BD4680BD80B586B046
:104BC00000AFF860084611461A4603467B810B4643
:104BD0003B811346FB800023FB82FB883A8979895D
:104BE000F86800F0ABF8FB681B89FB82FB8A23F0B6
:104BF0000703FB82FB8A43F00703FB82FB8A23F057
:104C00007003FB82FB8A43F07003FB82FB68FA8A25
:104C10001A8100BF1837BD4680BD00BF80B584B083
:104C200000AFF860084611461A4603467B810B46E2
:104C30003B811346FB80FB883A897989F86800F04C
:104C40007DF8FB681B899BB243F480439AB2FB68F2
:104C50001A8100BF1037BD4680BD00BF80B485B04B
:104C600000AF78600B467B800023FB817B681B894B
:104C7000FB81FB8923F07003FB81FA897B88134356
:104C8000FB817B68FA891A8100BF1437BD4680BC5E
:104C9000704700BF80B483B000AF78600B467B8064
:104CA0007B689B889BB223F070039AB27B689A80E2
:104CB0007B689B889AB27B8813439AB27B689A8000
:104CC00000BF0C37BD4680BC704700BF80B483B0C6
:104CD00000AF78600B467B807B681B899BB223F01A
:104CE00007039AB27B681A817B681B899AB27B881A
:104CF00013439AB27B681A8100BF0C37BD4680BC53
:104D0000704700BF80B483B000AF78600B467B80F3
:104D10007B681B899BB223F080039AB27B681A815F
:104D20007B681B899AB27B8813439AB27B681A818D
:104D300000BF0C37BD4680BC704700BF80B487B051
:104D400000AFF860084611461A4603467B810B46C1
:104D50003B811346FB800023FB82FB681B89FB829F
:104D6000FB8ADBB2FB82FB881B029AB23B891343AE
:104D70009AB27B8913439AB2FB8A1343FB82FB6886
:104D8000FA8A1A8100BF1C37BD4680BC704700BF3D
:104D900080B487B000AFF860084611461A46034653
:104DA0007B810B463B811346FB800023FB82002363
:104DB000BB8200237B82FB681B89FB82FB681B8B09
:104DC000BB82FB681B8C7B82FB8A23F00703FB8280
:104DD000FA8A7B891343FB82BB8A23F4407323F056
:104DE0000303BB82BB8A43F4807343F00103BB829D
:104DF0007B8A23F022037B82FB881B019AB23B89CA
:104E000013439AB27B8A13437B82FB68FA8A1A8126
:104E1000FB68BA8A1A83FB687A8A1A8400BF1C3737
:104E2000BD4680BC704700BF80B483B000AF7860DF
:104E30000B46FB70FB78002B08D07B689B889BB2ED
:104E400043F080039AB27B689A8007E07B689B8876
:104E50009BB223F080039AB27B689A8000BF0C3724
:104E6000BD4680BC704700BF80B483B000AF78609F
:104E70000B467B807B687A88A3F8502000BF0C37F4
:104E8000BD4680BC704700BF80B487B000AFF860FB
:104E9000084611461A4603467B810B463B81134662
:104EA000FB800023FB820023BB82FB681B8C9BB230
:104EB00023F001039AB2FB681A84FB681B8BFB8208
:104EC000FB681B8CBB82FB8A23F0F303FB82FB880D
:104ED0001B019AB23B8913439AB2FB8A1343FB82AC
:104EE000BB8A23F00A03BB827A89BB8A13439BB235
:104EF00043F00103BB82FB68FA8A1A83FB68BA8A13
:104F00001A8400BF1C37BD4680BC704780B487B090
:104F100000AFF860084611461A4603467B810B46EF
:104F20003B811346FB800023FB820023BB820023CE
:104F30007B82FB681B8C9BB223F010039AB2FB6848
:104F40001A84FB681B8BFB82FB681B8CBB827B89F2
:104F50001B017B82FB8A23F440731B051B0DFB8224
:104F6000FB881B039AB2FB8A1343FB823B891B021B
:104F70009AB2FB8A1343FB82BB8A23F0A003BB8255
:104F80007A8ABB8A13439BB243F01003BB82FB684F
:104F9000FA8A1A83FB68BA8A1A8400BF1C37BD4696
:104FA00080BC704780B487B000AFF86008461146F7
:104FB0001A4603467B810B463B811346FB80002348
:104FC000FB820023BB8200237B82FB681B8C9BB28D
:104FD00023F480739AB2FB681A84FB689B8BFB8274
:104FE000FB681B8CBB827B891B027B82FB8A23F0C4
:104FF000F303FB82FB881B019AB23B8913439AB2ED
:10500000FB8A1343FB82BB8A23F42063BB827A8A28
:10501000BB8A13439BB243F48073BB82FB68FA8A5A
:105020009A83FB68BA8A1A8400BF1C37BD4680BCCD
:10503000704700BF80B487B000AFF86008461146E3
:105040001A4603467B810B463B811346FB800023B7
:10505000FB820023BB8200237B82FB681B8C9BB2FC
:1050600023F480539AB2FB681A84FB689B8BFB8203
:10507000FB681B8CBB827B891B037B82FB8A23F42E
:1050800040731B051B0DFB823B891B029AB2FB8AF6
:105090001343FB82FB881B039AB2FB8A1343FB82F8
:1050A000BB8A23F400535B045B0CBB827A8ABB8A05
:1050B00013439BB243F48053BB82FB68FA8A9A8302
:1050C000FB68BA8A1A8400BF1C37BD4680BC704793
:1050D00080B582B000AF78607B683B4A934208D1CC
:1050E00001211020FEF7AEF800211020FEF7AAF8EB
:1050F00065E07B68354A93420AD101214FF40030C4
:10510000FEF782F800214FF40030FEF77DF856E0FC
:105110007B682F4A93420AD101214FF48020FEF789
:1051200073F800214FF48020FEF76EF847E07B68AB
:10513000284A93420AD101214FF40020FEF764F877
:1051400000214FF40020FEF75FF838E07B68224A28
:1051500093420AD101214FF48010FEF755F8002147
:105160004FF48010FEF750F829E07B681B4A934209
:1051700008D101212020FEF765F800212020FEF74C
:1051800061F81CE07B68164A93420AD101214FF076
:105190008040FEF739F800214FF08040FEF734F8E8
:1051A0000DE07B680F4A934209D101214FF0004086
:1051B000FEF72AF800214FF00040FEF725F800BF67
:1051C0000837BD4680BD00BF0010014000440040CC
:1051D00000480040004C00400050004000140140D6
:1051E00000780040007C004080B58AB000AF786055
:1051F000396000237B6200233B620023FB610023B4
:10520000BB617B681B8A9BB27B627B6A23F4405341
:105210007B623B68DB881A467B6A13437B627B6A4E
:105220009AB27B681A827B689B899BB27B627B6A9D
:1052300023F4B05323F00C037B623B689A883B68ED
:105240001B8913439AB23B685B8913439BB21A468E
:105250007B6A13437B627B6A9AB27B689A817B6824
:105260009B8A9BB27B627B6A23F440737B623B68C0
:105270009B891A467B6A13437B627B6A9AB27B687E
:105280009A8207F108031846FDF75EFD7B68304AF5
:10529000934203D07B682F4A934202D17B693B62E1
:1052A00001E03B693B627B689B899BB21BB2002B90
:1052B0000CDA3A6A13469B0013449A001A443B687E
:1052C0001B685B00B2FBF3F3FB610BE03A6A134629
:1052D0009B0013449A001A443B681B689B00B2FB76
:1052E000F3F3FB61FB691C4AA2FB03235B091B016F
:1052F0007B627B6A1B09642202FB03F3FA69D31AFF
:10530000BB617B689B899BB21BB2002B0CDABB692B
:10531000DB003233104AA2FB03235B0903F00703CF
:105320007A6A13437B620BE0BB691B0132330A4A82
:10533000A2FB03235B0903F00F037A6A13437B622A
:105340007B6A9AB27B681A8100BF2837BD4680BD50
:1053500000100140001401401F85EB5180B483B060
:1053600000AF78607B684FF416521A607B680022A9
:105370009A807B680022DA807B6800221A817B6831
:105380000C225A817B6800229A8100BF0C37BD46EF
:1053900080BC704780B485B000AF7860396000236E
:1053A000FB607B681B8A9BB2FB60FB6823F4706325
:1053B000FB603B681A883B685B8813439AB23B6882
:1053C0009B8813439AB23B68DB8813439BB21A460F
:1053D000FB681343FB60FB689AB27B681A8200BFCC
:1053E0001437BD4680BC704780B483B000AF78608E
:1053F0007B6800221A807B6800225A807B6800222A
:105400009A807B680022DA8000BF0C37BD4680BCE2
:10541000704700BF80B483B000AF78600B46FB706C
:10542000FB78002B08D07B689B899BB243F4005328
:105430009AB27B689A8107E07B689B899BB223F4D0
:1054400000539AB27B689A8100BF0C37BD4680BC7E
:10545000704700BF80B483B000AF78600B46FB702C
:105460007B681B8B9BB223F0FF039AB27B681A8385
:105470007B681B8B9AB2FB789BB213439AB27B6812
:105480001A8300BF0C37BD4680BC704780B483B020
:1054900000AF78600B46FB70FB78002B0AD07B686E
:1054A0009B899BB26FEA43436FEA53439AB27B688E
:1054B0009A8107E07B689B899BB2C3F30E039AB283
:1054C0007B689A8100BF0C37BD4680BC704700BF27
:1054D00080B483B000AF78600B46FB70FB78002B84
:1054E00008D07B689B8A9BB243F400639AB27B68C6
:1054F0009A8207E07B689B8A9BB223F400639AB28E
:105500007B689A8200BF0C37BD4680BC704700BFE5
:1055100080B483B000AF78600B467B807B88C3F398
:1055200008039AB27B689A8000BF0C37BD4680BCE6
:10553000704700BF80B483B000AF78607B689B8801
:105540009BB2C3F308039BB218460C37BD4680BC20
:10555000704700BF80B483B000AF78600B46FB702B
:105560007B681B8A9BB223F00F039AB27B681A8276
:105570007B681B8A9AB2FB789BB213439AB27B6812
:105580001A8200BF0C37BD4680BC704780B483B020
:1055900000AF78600B46FB70FB78002B08D07B686F
:1055A0009B899BB243F002039AB27B689A8107E021
:1055B0007B689B899BB223F002039AB27B689A8135
:1055C00000BF0C37BD4680BC704700BF80B483B0BD
:1055D00000AF78600B467B807B689B899BB223F48D
:1055E00000639AB27B689A817B689B899AB27B88B8
:1055F00013439AB27B689A8100BF0C37BD4680BCCA
:10560000704700BF80B483B000AF78600B467B80EA
:105610007B681B8A9BB223F020039AB27B681A82B4
:105620007B681B8A9AB27B8813439AB27B681A8282
:1056300000BF0C37BD4680BC704700BF80B483B04C
:1056400000AF78600B46FB70FB78002B08D07B68BE
:105650001B8A9BB243F480439AB27B681A8207E0AC
:105660007B681B8A9BB223F480439AB27B681A82C0
:1056700000BF0C37BD4680BC704700BF80B483B00C
:1056800000AF78607B689B899BB243F001039AB2BC
:105690007B689A8100BF0C37BD4680BC704700BF55
:1056A00080B483B000AF78600B46FB70FB78002BB2
:1056B00008D07B689B8A9BB243F008039AB27B6850
:1056C0009A8207E07B689B8A9BB223F008039AB218
:1056D0007B689A8200BF0C37BD4680BC704700BF14
:1056E00080B483B000AF78600B46FB707B681B8B87
:1056F0009BB2DBB29AB27B681A837B681B8B9AB22F
:10570000FB789BB21B029BB213439AB27B681A834D
:1057100000BF0C37BD4680BC704700BF80B483B06B
:1057200000AF78600B46FB70FB78002B08D07B68DD
:105730009B8A9BB243F020039AB27B689A8207E06F
:105740007B689B8A9BB223F020039AB27B689A8283
:1057500000BF0C37BD4680BC704700BF80B483B02B
:1057600000AF78600B46FB70FB78002B08D07B689D
:105770009B8A9BB243F010039AB27B689A8207E03F
:105780007B689B8A9BB223F010039AB27B689A8253
:1057900000BF0C37BD4680BC704700BF80B483B0EB
:1057A00000AF78600B467B807B689B8A9BB223F0BE
:1057B00004039AB27B689A827B689B8A9AB27B8840
:1057C00013439AB27B689A8200BF0C37BD4680BCF7
:1057D000704700BF80B483B000AF78600B46FB70A9
:1057E000FB78002B08D07B689B8A9BB243F00203B6
:1057F0009AB27B689A8207E07B689B8A9BB223F00F
:1058000002039AB27B689A8200BF0C37BD4680BC07
:10581000704700BF80B483B000AF78600B467B80D8
:1058200013467B707B78002B08D07B689B8A9AB2EA
:105830007B8813439AB27B689A8209E07B689B8AD3
:105840009AB27B88DB439BB213409AB27B689A8200
:1058500000BF0C37BD4680BC704700BF80B487B026
:1058600000AF78600B467B8013467B7000233B6162
:105870000023FB600023BB6000237B617B687B61AE
:105880007B88DBB25B09DBB23B617B8803F01F03E3
:10589000FB600122FB6802FA03F3BB603B69012B4A
:1058A00003D17B690C337B6109E03B69022B03D197
:1058B0007B6910337B6102E07B6914337B617B7809
:1058C000002B06D07B697A691168BA680A431A60AE
:1058D00006E07B697A691168BA68D2430A401A60A7
:1058E00000BF1C37BD4680BC704700BF80B485B088
:1058F00000AF78600B467B800023FB737B681B88BE
:105900009AB27B8813409BB2002B02D00123FB7319
:1059100001E00023FB73FB7B18461437BD4680BCB7
:10592000704700BF80B483B000AF78600B467B80C7
:105930007B88DB439AB27B681A8000BF0C37BD4678
:1059400080BC704780B487B000AF78600B467B8026
:105950000023FB6000237B610023BB600023FB74FA
:105960007B88DBB25B09DBB2BB607B8803F01F0383
:105970007B6101227B6902FA03F37B61BB68012B27
:1059800007D17B689B899BB21A467B6913407B6178
:1059900011E0BB68022B07D17B681B8A9BB21A46B9
:1059A0007B6913407B6106E07B689B8A9BB21A4649
:1059B0007B6913407B617B881B0A9BB2FB600122E1
:1059C000FB6802FA03F3FB607B681B889BB21A46F4
:1059D000FB681340FB607B69002B05D0FB68002B44
:1059E00002D00123FB7401E00023FB74FB7C18460A
:1059F0001C37BD4680BC704780B485B000AF78606E
:105A00000B467B800023FB810023BB817B881B0A24
:105A1000FB81FB89012202FA03F3BB81BB89DB43D3
:105A20009AB27B681A8000BF1437BD4680BC7047AD
:105A300070B50F4E0F4D761BB61018BF002405D061
:105A4000013455F8043B9847A642F9D10A4E0B4D54
:105A5000761B00F08BF8B61018BF002406D0013476
:105A600055F8043B9847A642F9D170BD70BD00BF00
:105A7000580400205804002060040020580400202E
:105A8000024B13B1024800F005B870470000000057
:105A9000A15A0008002301461A46184600F014B81F
:105AA00038B5074D074C2C1BA41005D0013C55F808
:105AB000043D9847002CF9D1BDE8384000F05CB8AF
:105AC00064040020600400202DE9F047254C25687F
:105AD000D5F848410646884692469946C4B3606860
